:040000005AEF02F0C1
:100300000000C26A939893904AEC02F02CEC02F041
:100310001204D8A48EEF01F090EF01F0C5EF01F0C8
:10032000E6EC01F00F6EE6EC01F00E6EE6EC01F08B
:10033000116EE6EC01F0106EE6EC01F00D6E0D5062
:10034000056E066A0E500FC007F0086A0726000EF9
:10035000082211500726000E082210500726000E12
:1003600008220550071807E106500818D8A4BBEF6B
:1003700001F0BDEF01F0C1EF01F011C00BF00FC0B3
:100380000CF081900BC009F00A6A0ABED1EF01F0AF
:100390000A5009E11C0E095CD8A0D1EF01F0D3EF9F
:1003A00001F0D6EF01F08188D7EF01F081980B0EB4
:1003B000066E260E056E5E0EE82EFED7052EFCD7C5
:1003C000062EFAD784EF01F000EF00F0036A046A0A
:1003D00081A6EDEF01F0EFEF01F0E8EF01F0140E70
:1003E000E82EFED781B6F7EF01F0F9EF01F00BEF41
:1003F00002F004500708016E010E026E012A03EF9D
:1004000002F0D8900236012E01EF02F00250FF0AEE
:10041000031621EF02F004500708016E010E026E70
:10042000012A15EF02F0D8900236012E13EF02F0E8
:100430000250031281B61FEF02F021EF02F01AEF13
:1004400002F0042A070E046428EF02F02AEF02F0FB
:10045000E8EF01F003501200126A1A0EE82EFED7E0
:1004600000D081B636EF02F038EF02F049EF02F02B
:10047000350EE82EFED7000081A641EF02F043EFD3
:1004800002F049EF02F0010E126E350EE82EFED793
:100490000000120093968A962F0E016EC00EE82E71
:1004A000FED7012EFCD78A861A0EE82EFED700D082
:1004B0009386120000EE0BF0080EEE6AE806FDE1EE
:0604C000000181EF01F0D4
:020000040030CA
:0E000000FFC20C3E3C9D85FF0FC00FE00F407D
:00000001FF
